{
  "contractName": "Pandemic_Recovery_System",
  "abi": [
    {
      "anonymous": false,
      "inputs": [
        {
          "indexed": false,
          "internalType": "string",
          "name": "Pname",
          "type": "string"
        },
        {
          "indexed": false,
          "internalType": "uint16",
          "name": "age",
          "type": "uint16"
        },
        {
          "indexed": false,
          "internalType": "string",
          "name": "symptom",
          "type": "string"
        }
      ],
      "name": "PatientDetails",
      "type": "event"
    },
    {
      "anonymous": false,
      "inputs": [
        {
          "indexed": false,
          "internalType": "string",
          "name": "Rname",
          "type": "string"
        },
        {
          "indexed": false,
          "internalType": "string",
          "name": "Symptoms",
          "type": "string"
        },
        {
          "indexed": false,
          "internalType": "string",
          "name": "HospitalName",
          "type": "string"
        },
        {
          "indexed": false,
          "internalType": "string",
          "name": "HospitalLocation",
          "type": "string"
        },
        {
          "indexed": false,
          "internalType": "uint256",
          "name": "DaysForRecovery",
          "type": "uint256"
        },
        {
          "indexed": false,
          "internalType": "string",
          "name": "TestUndergone",
          "type": "string"
        },
        {
          "indexed": false,
          "internalType": "uint16",
          "name": "AmtSpent",
          "type": "uint16"
        },
        {
          "indexed": false,
          "internalType": "string",
          "name": "MedicationsTaken",
          "type": "string"
        }
      ],
      "name": "RecovererDetails",
      "type": "event"
    },
    {
      "constant": true,
      "inputs": [
        {
          "internalType": "string",
          "name": "",
          "type": "string"
        }
      ],
      "name": "findTheDetail",
      "outputs": [
        {
          "internalType": "address",
          "name": "",
          "type": "address"
        }
      ],
      "payable": false,
      "stateMutability": "view",
      "type": "function"
    },
    {
      "constant": true,
      "inputs": [
        {
          "internalType": "address",
          "name": "",
          "type": "address"
        }
      ],
      "name": "patients",
      "outputs": [
        {
          "internalType": "string",
          "name": "Pname",
          "type": "string"
        },
        {
          "internalType": "uint16",
          "name": "age",
          "type": "uint16"
        },
        {
          "internalType": "string",
          "name": "symptom",
          "type": "string"
        }
      ],
      "payable": false,
      "stateMutability": "view",
      "type": "function"
    },
    {
      "constant": true,
      "inputs": [
        {
          "internalType": "address",
          "name": "",
          "type": "address"
        }
      ],
      "name": "recoverers",
      "outputs": [
        {
          "internalType": "string",
          "name": "Rname",
          "type": "string"
        },
        {
          "internalType": "string",
          "name": "Symptoms",
          "type": "string"
        },
        {
          "internalType": "string",
          "name": "HospitalName",
          "type": "string"
        },
        {
          "internalType": "string",
          "name": "HospitalLocation",
          "type": "string"
        },
        {
          "internalType": "uint16",
          "name": "DaysForRecovery",
          "type": "uint16"
        },
        {
          "internalType": "string",
          "name": "TestUndergone",
          "type": "string"
        },
        {
          "internalType": "uint16",
          "name": "AmtSpent",
          "type": "uint16"
        },
        {
          "internalType": "string",
          "name": "MedicationsTaken",
          "type": "string"
        }
      ],
      "payable": false,
      "stateMutability": "view",
      "type": "function"
    },
    {
      "constant": false,
      "inputs": [
        {
          "internalType": "string",
          "name": "_Pname",
          "type": "string"
        },
        {
          "internalType": "uint16",
          "name": "_age",
          "type": "uint16"
        },
        {
          "internalType": "string",
          "name": "_symptom",
          "type": "string"
        }
      ],
      "name": "FillPatientDetails",
      "outputs": [],
      "payable": false,
      "stateMutability": "nonpayable",
      "type": "function"
    },
    {
      "constant": true,
      "inputs": [
        {
          "internalType": "address",
          "name": "_patientaddress",
          "type": "address"
        }
      ],
      "name": "GetPatientSymptom",
      "outputs": [
        {
          "internalType": "string",
          "name": "",
          "type": "string"
        }
      ],
      "payable": false,
      "stateMutability": "view",
      "type": "function"
    },
    {
      "constant": false,
      "inputs": [
        {
          "internalType": "address",
          "name": "_patientaddress",
          "type": "address"
        }
      ],
      "name": "PatientAddressIs",
      "outputs": [
        {
          "internalType": "bool",
          "name": "",
          "type": "bool"
        }
      ],
      "payable": false,
      "stateMutability": "nonpayable",
      "type": "function"
    },
    {
      "constant": false,
      "inputs": [
        {
          "internalType": "string",
          "name": "_Rname",
          "type": "string"
        },
        {
          "internalType": "string",
          "name": "_Symptom",
          "type": "string"
        },
        {
          "internalType": "string",
          "name": "_HospitalName",
          "type": "string"
        },
        {
          "internalType": "string",
          "name": "_HospitalLocation",
          "type": "string"
        },
        {
          "internalType": "uint16",
          "name": "_DaysForRecovery",
          "type": "uint16"
        },
        {
          "internalType": "string",
          "name": "_TestUndergone",
          "type": "string"
        },
        {
          "internalType": "uint16",
          "name": "_AmtSpent",
          "type": "uint16"
        },
        {
          "internalType": "string",
          "name": "_MedicationsTaken",
          "type": "string"
        }
      ],
      "name": "FillRecovererDetails",
      "outputs": [],
      "payable": false,
      "stateMutability": "nonpayable",
      "type": "function"
    },
    {
      "constant": true,
      "inputs": [
        {
          "internalType": "address",
          "name": "_RecovererAddress",
          "type": "address"
        }
      ],
      "name": "GetRecovererSymptom",
      "outputs": [
        {
          "internalType": "string",
          "name": "",
          "type": "string"
        }
      ],
      "payable": false,
      "stateMutability": "view",
      "type": "function"
    },
    {
      "constant": false,
      "inputs": [
        {
          "internalType": "address",
          "name": "_RecovererAddress",
          "type": "address"
        }
      ],
      "name": "RecovererAddressIs",
      "outputs": [
        {
          "internalType": "bool",
          "name": "",
          "type": "bool"
        }
      ],
      "payable": false,
      "stateMutability": "nonpayable",
      "type": "function"
    },
    {
      "constant": true,
      "inputs": [
        {
          "internalType": "string",
          "name": "_symptom",
          "type": "string"
        }
      ],
      "name": "HowToRecoverDetails",
      "outputs": [
        {
          "components": [
            {
              "internalType": "string",
              "name": "Rname",
              "type": "string"
            },
            {
              "internalType": "string",
              "name": "Symptoms",
              "type": "string"
            },
            {
              "internalType": "string",
              "name": "HospitalName",
              "type": "string"
            },
            {
              "internalType": "string",
              "name": "HospitalLocation",
              "type": "string"
            },
            {
              "internalType": "uint16",
              "name": "DaysForRecovery",
              "type": "uint16"
            },
            {
              "internalType": "string",
              "name": "TestUndergone",
              "type": "string"
            },
            {
              "internalType": "uint16",
              "name": "AmtSpent",
              "type": "uint16"
            },
            {
              "internalType": "string",
              "name": "MedicationsTaken",
              "type": "string"
            }
          ],
          "internalType": "struct Pandemic_Recovery_System.Recoverer",
          "name": "",
          "type": "tuple"
        }
      ],
      "payable": false,
      "stateMutability": "view",
      "type": "function"
    }
  ],
  "bytecode": "0x608060405234801561001057600080fd5b50611d8d806100206000396000f3fe608060405234801561001057600080fd5b506004361061009e5760003560e01c8063be29d3a811610066578063be29d3a814610195578063d7d2c947146101b1578063de816de4146101cd578063e95b553314610204578063f5dafbe3146102345761009e565b80630869cfbc146100a3578063510bd42e146100d55780636c75eb8d14610105578063735e8ca814610135578063ada56bf414610165575b600080fd5b6100bd60048036036100b8919081019061142e565b610264565b6040516100cc93929190611a3a565b60405180910390f35b6100ef60048036036100ea919081019061142e565b6103cc565b6040516100fc9190611955565b60405180910390f35b61011f600480360361011a919081019061142e565b610495565b60405161012c9190611955565b60405180910390f35b61014f600480360361014a9190810190611498565b610535565b60405161015c9190611b6c565b60405180910390f35b61017f600480360361017a9190810190611457565b6109d9565b60405161018c919061193a565b60405180910390f35b6101af60048036036101aa919081019061161b565b610a22565b005b6101cb60048036036101c691908101906114d9565b610af0565b005b6101e760048036036101e2919081019061142e565b610c7e565b6040516101fb989796959493929190611992565b60405180910390f35b61021e6004803603610219919081019061142e565b611072565b60405161022b9190611970565b60405180910390f35b61024e6004803603610249919081019061142e565b61115c565b60405161025b9190611970565b60405180910390f35b6000602052806000526040600020600091509050806000018054600181600116156101000203166002900480601f0160208091040260200160405190810160405280929190818152602001828054600181600116156101000203166002900480156103105780601f106102e557610100808354040283529160200191610310565b820191906000526020600020905b8154815290600101906020018083116102f357829003601f168201915b5050505050908060010160009054906101000a900461ffff1690806002018054600181600116156101000203166002900480601f0160208091040260200160405190810160405280929190818152602001828054600181600116156101000203166002900480156103c25780601f10610397576101008083540402835291602001916103c2565b820191906000526020600020905b8154815290600101906020018083116103a557829003601f168201915b5050505050905083565b600080600160008473ffffffffffffffffffffffffffffffffffffffff1673ffffffffffffffffffffffffffffffffffffffff16815260200190815260200160002090507f653762ddd4ece03b4880d7053ae42e7c70694a7254a9c02b2529013232de8bd0816000018260010183600201846003018560040160009054906101000a900461ffff16866005018760060160009054906101000a900461ffff1688600701604051610483989796959493929190611a7f565b60405180910390a16001915050919050565b6000806000808473ffffffffffffffffffffffffffffffffffffffff1673ffffffffffffffffffffffffffffffffffffffff16815260200190815260200160002090507f0243ebf2371f2fee8cde45fc07c9fc46f83ec15e9ba9514cb6bf56369c27724b816000018260010160009054906101000a900461ffff168360020160405161052393929190611b27565b60405180910390a16001915050919050565b61053d611245565b600160006002846040516105519190611923565b908152602001604051809103902060009054906101000a900473ffffffffffffffffffffffffffffffffffffffff1673ffffffffffffffffffffffffffffffffffffffff1673ffffffffffffffffffffffffffffffffffffffff16815260200190815260200160002060405180610100016040529081600082018054600181600116156101000203166002900480601f01602080910402602001604051908101604052809291908181526020018280546001816001161561010002031660029004801561065f5780601f106106345761010080835404028352916020019161065f565b820191906000526020600020905b81548152906001019060200180831161064257829003601f168201915b50505050508152602001600182018054600181600116156101000203166002900480601f0160208091040260200160405190810160405280929190818152602001828054600181600116156101000203166002900480156107015780601f106106d657610100808354040283529160200191610701565b820191906000526020600020905b8154815290600101906020018083116106e457829003601f168201915b50505050508152602001600282018054600181600116156101000203166002900480601f0160208091040260200160405190810160405280929190818152602001828054600181600116156101000203166002900480156107a35780601f10610778576101008083540402835291602001916107a3565b820191906000526020600020905b81548152906001019060200180831161078657829003601f168201915b50505050508152602001600382018054600181600116156101000203166002900480601f0160208091040260200160405190810160405280929190818152602001828054600181600116156101000203166002900480156108455780601f1061081a57610100808354040283529160200191610845565b820191906000526020600020905b81548152906001019060200180831161082857829003601f168201915b505050505081526020016004820160009054906101000a900461ffff1661ffff1661ffff168152602001600582018054600181600116156101000203166002900480601f0160208091040260200160405190810160405280929190818152602001828054600181600116156101000203166002900480156109075780601f106108dc57610100808354040283529160200191610907565b820191906000526020600020905b8154815290600101906020018083116108ea57829003601f168201915b505050505081526020016006820160009054906101000a900461ffff1661ffff1661ffff168152602001600782018054600181600116156101000203166002900480601f0160208091040260200160405190810160405280929190818152602001828054600181600116156101000203166002900480156109c95780601f1061099e576101008083540402835291602001916109c9565b820191906000526020600020905b8154815290600101906020018083116109ac57829003601f168201915b5050505050815250509050919050565b6002818051602081018201805184825260208301602085012081835280955050505050506000915054906101000a900473ffffffffffffffffffffffffffffffffffffffff1681565b610a2a611292565b60405180606001604052808581526020018461ffff168152602001838152509050806000803373ffffffffffffffffffffffffffffffffffffffff1673ffffffffffffffffffffffffffffffffffffffff1681526020019081526020016000206000820151816000019080519060200190610aa69291906112b7565b5060208201518160010160006101000a81548161ffff021916908361ffff1602179055506040820151816002019080519060200190610ae69291906112b7565b5090505050505050565b610af8611245565b6040518061010001604052808a81526020018981526020018881526020018781526020018661ffff1681526020018581526020018461ffff16815260200183815250905080600160003373ffffffffffffffffffffffffffffffffffffffff1673ffffffffffffffffffffffffffffffffffffffff1681526020019081526020016000206000820151816000019080519060200190610b989291906112b7565b506020820151816001019080519060200190610bb59291906112b7565b506040820151816002019080519060200190610bd29291906112b7565b506060820151816003019080519060200190610bef9291906112b7565b5060808201518160040160006101000a81548161ffff021916908361ffff16021790555060a0820151816005019080519060200190610c2f9291906112b7565b5060c08201518160060160006101000a81548161ffff021916908361ffff16021790555060e0820151816007019080519060200190610c6f9291906112b7565b50905050505050505050505050565b6001602052806000526040600020600091509050806000018054600181600116156101000203166002900480601f016020809104026020016040519081016040528092919081815260200182805460018160011615610100020316600290048015610d2a5780601f10610cff57610100808354040283529160200191610d2a565b820191906000526020600020905b815481529060010190602001808311610d0d57829003601f168201915b505050505090806001018054600181600116156101000203166002900480601f016020809104026020016040519081016040528092919081815260200182805460018160011615610100020316600290048015610dc85780601f10610d9d57610100808354040283529160200191610dc8565b820191906000526020600020905b815481529060010190602001808311610dab57829003601f168201915b505050505090806002018054600181600116156101000203166002900480601f016020809104026020016040519081016040528092919081815260200182805460018160011615610100020316600290048015610e665780601f10610e3b57610100808354040283529160200191610e66565b820191906000526020600020905b815481529060010190602001808311610e4957829003601f168201915b505050505090806003018054600181600116156101000203166002900480601f016020809104026020016040519081016040528092919081815260200182805460018160011615610100020316600290048015610f045780601f10610ed957610100808354040283529160200191610f04565b820191906000526020600020905b815481529060010190602001808311610ee757829003601f168201915b5050505050908060040160009054906101000a900461ffff1690806005018054600181600116156101000203166002900480601f016020809104026020016040519081016040528092919081815260200182805460018160011615610100020316600290048015610fb65780601f10610f8b57610100808354040283529160200191610fb6565b820191906000526020600020905b815481529060010190602001808311610f9957829003601f168201915b5050505050908060060160009054906101000a900461ffff1690806007018054600181600116156101000203166002900480601f0160208091040260200160405190810160405280929190818152602001828054600181600116156101000203166002900480156110685780601f1061103d57610100808354040283529160200191611068565b820191906000526020600020905b81548152906001019060200180831161104b57829003601f168201915b5050505050905088565b60606000600160008473ffffffffffffffffffffffffffffffffffffffff1673ffffffffffffffffffffffffffffffffffffffff1681526020019081526020016000209050806001018054600181600116156101000203166002900480601f01602080910402602001604051908101604052809291908181526020018280546001816001161561010002031660029004801561114f5780601f106111245761010080835404028352916020019161114f565b820191906000526020600020905b81548152906001019060200180831161113257829003601f168201915b5050505050915050919050565b606060008060008473ffffffffffffffffffffffffffffffffffffffff1673ffffffffffffffffffffffffffffffffffffffff1681526020019081526020016000209050806002018054600181600116156101000203166002900480601f0160208091040260200160405190810160405280929190818152602001828054600181600116156101000203166002900480156112385780601f1061120d57610100808354040283529160200191611238565b820191906000526020600020905b81548152906001019060200180831161121b57829003601f168201915b5050505050915050919050565b60405180610100016040528060608152602001606081526020016060815260200160608152602001600061ffff16815260200160608152602001600061ffff168152602001606081525090565b604051806060016040528060608152602001600061ffff168152602001606081525090565b828054600181600116156101000203166002900490600052602060002090601f016020900481019282601f106112f857805160ff1916838001178555611326565b82800160010185558215611326579182015b8281111561132557825182559160200191906001019061130a565b5b5090506113339190611337565b5090565b61135991905b8082111561135557600081600090555060010161133d565b5090565b90565b60008135905061136b81611d1c565b92915050565b600082601f83011261138257600080fd5b813561139561139082611bbb565b611b8e565b915080825260208301602083018583830111156113b157600080fd5b6113bc838284611cc9565b50505092915050565b600082601f8301126113d657600080fd5b81356113e96113e482611be7565b611b8e565b9150808252602083016020830185838301111561140557600080fd5b611410838284611cc9565b50505092915050565b60008135905061142881611d33565b92915050565b60006020828403121561144057600080fd5b600061144e8482850161135c565b91505092915050565b60006020828403121561146957600080fd5b600082013567ffffffffffffffff81111561148357600080fd5b61148f84828501611371565b91505092915050565b6000602082840312156114aa57600080fd5b600082013567ffffffffffffffff8111156114c457600080fd5b6114d0848285016113c5565b91505092915050565b600080600080600080600080610100898b0312156114f657600080fd5b600089013567ffffffffffffffff81111561151057600080fd5b61151c8b828c016113c5565b985050602089013567ffffffffffffffff81111561153957600080fd5b6115458b828c016113c5565b975050604089013567ffffffffffffffff81111561156257600080fd5b61156e8b828c016113c5565b965050606089013567ffffffffffffffff81111561158b57600080fd5b6115978b828c016113c5565b95505060806115a88b828c01611419565b94505060a089013567ffffffffffffffff8111156115c557600080fd5b6115d18b828c016113c5565b93505060c06115e28b828c01611419565b92505060e089013567ffffffffffffffff8111156115ff57600080fd5b61160b8b828c016113c5565b9150509295985092959890939650565b60008060006060848603121561163057600080fd5b600084013567ffffffffffffffff81111561164a57600080fd5b611656868287016113c5565b935050602061166786828701611419565b925050604084013567ffffffffffffffff81111561168457600080fd5b611690868287016113c5565b9150509250925092565b6116a381611c6b565b82525050565b6116b281611c7d565b82525050565b60006116c382611c33565b6116cd8185611c4f565b93506116dd818560208601611cd8565b6116e681611d0b565b840191505092915050565b60006116fc82611c33565b6117068185611c60565b9350611716818560208601611cd8565b80840191505092915050565b600061172d82611c28565b6117378185611c3e565b9350611747818560208601611cd8565b61175081611d0b565b840191505092915050565b600061176682611c28565b6117708185611c4f565b9350611780818560208601611cd8565b61178981611d0b565b840191505092915050565b6000815460018116600081146117b157600181146117d75761181b565b607f60028304166117c28187611c4f565b955060ff19831686526020860193505061181b565b600282046117e58187611c4f565b95506117f085611c13565b60005b82811015611812578154818901526001820191506020810190506117f3565b80880195505050505b505092915050565b60006101008301600083015184820360008601526118418282611722565b9150506020830151848203602086015261185b8282611722565b915050604083015184820360408601526118758282611722565b9150506060830151848203606086015261188f8282611722565b91505060808301516118a460808601826118f6565b5060a083015184820360a08601526118bc8282611722565b91505060c08301516118d160c08601826118f6565b5060e083015184820360e08601526118e98282611722565b9150508091505092915050565b6118ff81611c89565b82525050565b61190e81611c89565b82525050565b61191d81611cb7565b82525050565b600061192f82846116f1565b915081905092915050565b600060208201905061194f600083018461169a565b92915050565b600060208201905061196a60008301846116a9565b92915050565b6000602082019050818103600083015261198a81846116b8565b905092915050565b60006101008201905081810360008301526119ad818b61175b565b905081810360208301526119c1818a61175b565b905081810360408301526119d5818961175b565b905081810360608301526119e9818861175b565b90506119f86080830187611905565b81810360a0830152611a0a818661175b565b9050611a1960c0830185611905565b81810360e0830152611a2b818461175b565b90509998505050505050505050565b60006060820190508181036000830152611a54818661175b565b9050611a636020830185611905565b8181036040830152611a75818461175b565b9050949350505050565b6000610100820190508181036000830152611a9a818b611794565b90508181036020830152611aae818a611794565b90508181036040830152611ac28189611794565b90508181036060830152611ad68188611794565b9050611ae56080830187611914565b81810360a0830152611af78186611794565b9050611b0660c0830185611905565b81810360e0830152611b188184611794565b90509998505050505050505050565b60006060820190508181036000830152611b418186611794565b9050611b506020830185611905565b8181036040830152611b628184611794565b9050949350505050565b60006020820190508181036000830152611b868184611823565b905092915050565b6000604051905081810181811067ffffffffffffffff82111715611bb157600080fd5b8060405250919050565b600067ffffffffffffffff821115611bd257600080fd5b601f19601f8301169050602081019050919050565b600067ffffffffffffffff821115611bfe57600080fd5b601f19601f8301169050602081019050919050565b60008190508160005260206000209050919050565b600081519050919050565b600081519050919050565b600082825260208201905092915050565b600082825260208201905092915050565b600081905092915050565b6000611c7682611c97565b9050919050565b60008115159050919050565b600061ffff82169050919050565b600073ffffffffffffffffffffffffffffffffffffffff82169050919050565b6000611cc282611c89565b9050919050565b82818337600083830152505050565b60005b83811015611cf6578082015181840152602081019050611cdb565b83811115611d05576000848401525b50505050565b6000601f19601f8301169050919050565b611d2581611c6b565b8114611d3057600080fd5b50565b611d3c81611c89565b8114611d4757600080fd5b5056fea365627a7a723158206ef8b237935d15ba2496fff292298250e85bb7c1bd4f2469cdfd8441fc662bb06c6578706572696d656e74616cf564736f6c63430005100040",
  "source": "\r\npragma solidity >=0.4.25 <0.7.0;\r\npragma experimental ABIEncoderV2;\r\n\r\ncontract Pandemic_Recovery_System\r\n{\r\n// PATIENT Module\r\n\r\n     struct Patient{\r\n        string Pname;\r\n        uint16 age;\r\n        string  symptom;\r\n      }\r\n    //   assign address to each patient\r\n    mapping(address => Patient) public patients;\r\n    event PatientDetails(string  Pname, uint16 age, string  symptom);\r\n    // SetPatient\r\n      function FillPatientDetails( string memory _Pname, uint16 _age, string memory _symptom ) public {\r\n    // get each instances of Patient struct\r\n    Patient memory eachpatient = Patient(_Pname, _age,_symptom);\r\n    patients[msg.sender]=eachpatient;\r\n   }\r\n    \r\n    function GetPatientSymptom(address _patientaddress) external view returns (string memory)\r\n    {\r\n        // return patient details stored at patient address\r\n        Patient storage patient1 = patients[_patientaddress];\r\n        return patient1.symptom;\r\n     }\r\n     \r\n     function PatientAddressIs(address _patientaddress)  external  returns (bool)\r\n         \r\n     {      \r\n     // return patient details stored at patient address\r\n        Patient storage patient1 = patients[_patientaddress];\r\n        \r\n       //Gives the patient details when input the address\r\n        emit PatientDetails(patient1.Pname, patient1.age,patient1.symptom);\r\n        return true;\r\n     }\r\n\r\n// RECOVERER Module\r\n    \r\n   struct Recoverer{\r\n        string Rname;\r\n        string Symptoms;\r\n        string HospitalName;\r\n        string HospitalLocation;\r\n        uint16 DaysForRecovery;\r\n        string TestUndergone;\r\n        uint16 AmtSpent;\r\n        string MedicationsTaken;\r\n                   }\r\n                   \r\n            //   assign address to each recoverer      \r\n    mapping(address => Recoverer) public recoverers;\r\n    event RecovererDetails(string  Rname,  string Symptoms, string HospitalName,  string HospitalLocation,  uint DaysForRecovery,  string TestUndergone,\r\n        uint16 AmtSpent, string MedicationsTaken);\r\n        \r\n//   SetRecoverer\r\n   function FillRecovererDetails( string memory _Rname, string memory _Symptom, string memory _HospitalName, string memory _HospitalLocation, uint16 _DaysForRecovery, \r\n   string memory _TestUndergone, uint16 _AmtSpent, string memory _MedicationsTaken) public {\r\n      \r\n        // get each instances of Recoverer struct\r\n     Recoverer memory EachRecoverer = Recoverer (_Rname, _Symptom , _HospitalName, _HospitalLocation, _DaysForRecovery, _TestUndergone,  _AmtSpent,_MedicationsTaken );\r\n       recoverers[msg.sender]=EachRecoverer;\r\n}   \r\n\r\nfunction GetRecovererSymptom(address _RecovererAddress)  external view returns (string memory)\r\n    {\r\n        // return Recoverer details stored at Recoverer Address\r\n        Recoverer storage Recoverer1 = recoverers[_RecovererAddress];\r\n        return Recoverer1.Symptoms;\r\n     }\r\n\r\nfunction RecovererAddressIs(address  _RecovererAddress)  external  returns (bool)\r\n         \r\n     {      \r\n     // return Recoverer details stored at Recoverer address\r\n        Recoverer storage Recoverer1 =  recoverers[_RecovererAddress];\r\n        \r\n        //Gives the recoverer details when input the address\r\n        emit RecovererDetails ( Recoverer1.Rname,  Recoverer1.Symptoms,   Recoverer1.HospitalName,   Recoverer1.HospitalLocation    ,Recoverer1.DaysForRecovery,\r\n        Recoverer1.TestUndergone  ,Recoverer1.AmtSpent   ,Recoverer1.MedicationsTaken);\r\n        return true;\r\n     }\r\n     \r\n     \r\n    //  map Patient Symptom to Recover symptom and sind the recovery details\r\n     \r\n    mapping(string => address) public findTheDetail;\r\n\r\n  function HowToRecoverDetails (string memory _symptom) public view returns(Recoverer  memory)\r\n  { \r\n  return  recoverers[findTheDetail[_symptom]];\r\n    \r\n    \r\n     \r\n}\r\n\r\n}\r\n     \r\n     \r\n\r\n",
  "sourcePath": "E:/Ethereum workspace/Project_final/contracts/Pandemic_Recovery_System.sol",
  "compiler": {
    "name": "solc",
    "version": "0.5.16+commit.9c3226ce.Emscripten.clang"
  },
  "schemaVersion": "3.0.22",
  "updatedAt": "2020-08-09T11:02:30.959Z",
  "devdoc": {
    "methods": {}
  },
  "userdoc": {
    "methods": {}
  }
}